{
  "contractName": "MovieFunder",
  "abi": [
    {
      "inputs": [],
      "payable": false,
      "stateMutability": "nonpayable",
      "type": "constructor"
    },
    {
      "anonymous": false,
      "inputs": [
        {
          "indexed": false,
          "internalType": "uint256",
          "name": "id",
          "type": "uint256"
        },
        {
          "indexed": false,
          "internalType": "string",
          "name": "movieHash",
          "type": "string"
        },
        {
          "indexed": false,
          "internalType": "string",
          "name": "title",
          "type": "string"
        },
        {
          "indexed": false,
          "internalType": "string",
          "name": "description",
          "type": "string"
        },
        {
          "indexed": false,
          "internalType": "uint256",
          "name": "requiredAmount",
          "type": "uint256"
        },
        {
          "indexed": false,
          "internalType": "uint256",
          "name": "availableAmount",
          "type": "uint256"
        },
        {
          "indexed": false,
          "internalType": "address payable",
          "name": "producer",
          "type": "address"
        },
        {
          "indexed": false,
          "internalType": "bool",
          "name": "active",
          "type": "bool"
        }
      ],
      "name": "movieCreated",
      "type": "event"
    },
    {
      "anonymous": false,
      "inputs": [
        {
          "indexed": false,
          "internalType": "uint256",
          "name": "id",
          "type": "uint256"
        },
        {
          "indexed": false,
          "internalType": "string",
          "name": "movieHash",
          "type": "string"
        },
        {
          "indexed": false,
          "internalType": "string",
          "name": "title",
          "type": "string"
        },
        {
          "indexed": false,
          "internalType": "string",
          "name": "description",
          "type": "string"
        },
        {
          "indexed": false,
          "internalType": "uint256",
          "name": "requiredAmount",
          "type": "uint256"
        },
        {
          "indexed": false,
          "internalType": "uint256",
          "name": "availableAmount",
          "type": "uint256"
        },
        {
          "indexed": false,
          "internalType": "address payable",
          "name": "producer",
          "type": "address"
        },
        {
          "indexed": false,
          "internalType": "bool",
          "name": "active",
          "type": "bool"
        }
      ],
      "name": "movieTipped",
      "type": "event"
    },
    {
      "constant": true,
      "inputs": [],
      "name": "admin",
      "outputs": [
        {
          "internalType": "address",
          "name": "",
          "type": "address"
        }
      ],
      "payable": false,
      "stateMutability": "view",
      "type": "function"
    },
    {
      "constant": true,
      "inputs": [],
      "name": "movieCount",
      "outputs": [
        {
          "internalType": "uint256",
          "name": "",
          "type": "uint256"
        }
      ],
      "payable": false,
      "stateMutability": "view",
      "type": "function"
    },
    {
      "constant": true,
      "inputs": [
        {
          "internalType": "uint256",
          "name": "",
          "type": "uint256"
        }
      ],
      "name": "movies",
      "outputs": [
        {
          "internalType": "uint256",
          "name": "id",
          "type": "uint256"
        },
        {
          "internalType": "string",
          "name": "movieHash",
          "type": "string"
        },
        {
          "internalType": "string",
          "name": "title",
          "type": "string"
        },
        {
          "internalType": "string",
          "name": "description",
          "type": "string"
        },
        {
          "internalType": "uint256",
          "name": "requiredAmount",
          "type": "uint256"
        },
        {
          "internalType": "uint256",
          "name": "availableAmount",
          "type": "uint256"
        },
        {
          "internalType": "address payable",
          "name": "producer",
          "type": "address"
        },
        {
          "internalType": "bool",
          "name": "active",
          "type": "bool"
        }
      ],
      "payable": false,
      "stateMutability": "view",
      "type": "function"
    },
    {
      "constant": true,
      "inputs": [],
      "name": "producerCount",
      "outputs": [
        {
          "internalType": "uint256",
          "name": "",
          "type": "uint256"
        }
      ],
      "payable": false,
      "stateMutability": "view",
      "type": "function"
    },
    {
      "constant": true,
      "inputs": [
        {
          "internalType": "address",
          "name": "",
          "type": "address"
        }
      ],
      "name": "producers",
      "outputs": [
        {
          "internalType": "bool",
          "name": "approved",
          "type": "bool"
        }
      ],
      "payable": false,
      "stateMutability": "view",
      "type": "function"
    },
    {
      "constant": false,
      "inputs": [
        {
          "internalType": "address",
          "name": "_producer",
          "type": "address"
        }
      ],
      "name": "giveRightToProducer",
      "outputs": [],
      "payable": false,
      "stateMutability": "nonpayable",
      "type": "function"
    },
    {
      "constant": false,
      "inputs": [
        {
          "internalType": "string",
          "name": "_movieHash",
          "type": "string"
        },
        {
          "internalType": "string",
          "name": "_title",
          "type": "string"
        },
        {
          "internalType": "string",
          "name": "_description",
          "type": "string"
        },
        {
          "internalType": "uint256",
          "name": "_requiredAmount",
          "type": "uint256"
        }
      ],
      "name": "createMovie",
      "outputs": [],
      "payable": false,
      "stateMutability": "nonpayable",
      "type": "function"
    },
    {
      "constant": false,
      "inputs": [
        {
          "internalType": "uint256",
          "name": "_id",
          "type": "uint256"
        }
      ],
      "name": "tipMovieOwner",
      "outputs": [],
      "payable": true,
      "stateMutability": "payable",
      "type": "function"
    }
  ],
  "bytecode": "0x60806040526000600255600060035534801561001a57600080fd5b5033600460006101000a81548173ffffffffffffffffffffffffffffffffffffffff021916908373ffffffffffffffffffffffffffffffffffffffff160217905550611afa8061006b6000396000f3fe60806040526004361061007b5760003560e01c8063dea21ba11161004e578063dea21ba11461031e578063e5bf69941461034c578063e69e9c521461054c578063f851a4401461059d5761007b565b806326324eff14610080578063404ebf6c146100e9578063a1daf326146102c8578063d708fe5b146102f3575b600080fd5b34801561008c57600080fd5b506100cf600480360360208110156100a357600080fd5b81019080803573ffffffffffffffffffffffffffffffffffffffff1690602001909291905050506105f4565b604051808215151515815260200191505060405180910390f35b3480156100f557600080fd5b506101226004803603602081101561010c57600080fd5b810190808035906020019092919050505061061f565b604051808981526020018060200180602001806020018881526020018781526020018673ffffffffffffffffffffffffffffffffffffffff1673ffffffffffffffffffffffffffffffffffffffff1681526020018515151515815260200184810384528b818151815260200191508051906020019080838360005b838110156101b857808201518184015260208101905061019d565b50505050905090810190601f1680156101e55780820380516001836020036101000a031916815260200191505b5084810383528a818151815260200191508051906020019080838360005b8381101561021e578082015181840152602081019050610203565b50505050905090810190601f16801561024b5780820380516001836020036101000a031916815260200191505b50848103825289818151815260200191508051906020019080838360005b83811015610284578082015181840152602081019050610269565b50505050905090810190601f1680156102b15780820380516001836020036101000a031916815260200191505b509b50505050505050505050505060405180910390f35b3480156102d457600080fd5b506102dd61085c565b6040518082815260200191505060405180910390f35b3480156102ff57600080fd5b50610308610862565b6040518082815260200191505060405180910390f35b61034a6004803603602081101561033457600080fd5b8101908080359060200190929190505050610868565b005b34801561035857600080fd5b5061054a6004803603608081101561036f57600080fd5b810190808035906020019064010000000081111561038c57600080fd5b82018360208201111561039e57600080fd5b803590602001918460018302840111640100000000831117156103c057600080fd5b91908080601f016020809104026020016040519081016040528093929190818152602001838380828437600081840152601f19601f8201169050808301925050505050505091929192908035906020019064010000000081111561042357600080fd5b82018360208201111561043557600080fd5b8035906020019184600183028401116401000000008311171561045757600080fd5b91908080601f016020809104026020016040519081016040528093929190818152602001838380828437600081840152601f19601f820116905080830192505050505050509192919290803590602001906401000000008111156104ba57600080fd5b8201836020820111156104cc57600080fd5b803590602001918460018302840111640100000000831117156104ee57600080fd5b91908080601f016020809104026020016040519081016040528093929190818152602001838380828437600081840152601f19601f820116905080830192505050505050509192919290803590602001909291905050506110ca565b005b34801561055857600080fd5b5061059b6004803603602081101561056f57600080fd5b81019080803573ffffffffffffffffffffffffffffffffffffffff169060200190929190505050611736565b005b3480156105a957600080fd5b506105b2611946565b604051808273ffffffffffffffffffffffffffffffffffffffff1673ffffffffffffffffffffffffffffffffffffffff16815260200191505060405180910390f35b60016020528060005260406000206000915090508060000160009054906101000a900460ff16905081565b6000602052806000526040600020600091509050806000015490806001018054600181600116156101000203166002900480601f0160208091040260200160405190810160405280929190818152602001828054600181600116156101000203166002900480156106d15780601f106106a6576101008083540402835291602001916106d1565b820191906000526020600020905b8154815290600101906020018083116106b457829003601f168201915b505050505090806002018054600181600116156101000203166002900480601f01602080910402602001604051908101604052809291908181526020018280546001816001161561010002031660029004801561076f5780601f106107445761010080835404028352916020019161076f565b820191906000526020600020905b81548152906001019060200180831161075257829003601f168201915b505050505090806003018054600181600116156101000203166002900480601f01602080910402602001604051908101604052809291908181526020018280546001816001161561010002031660029004801561080d5780601f106107e25761010080835404028352916020019161080d565b820191906000526020600020905b8154815290600101906020018083116107f057829003601f168201915b5050505050908060040154908060050154908060060160009054906101000a900473ffffffffffffffffffffffffffffffffffffffff16908060060160149054906101000a900460ff16905088565b60025481565b60035481565b8060008083815260200190815260200160002060000154146108f2576040517f08c379a00000000000000000000000000000000000000000000000000000000081526004018080602001828103825260138152602001807f4d6f76696520646f65736e74206578697374730000000000000000000000000081525060200191505060405180910390fd5b6108fa61196c565b6000808381526020019081526020016000206040518061010001604052908160008201548152602001600182018054600181600116156101000203166002900480601f0160208091040260200160405190810160405280929190818152602001828054600181600116156101000203166002900480156109bb5780601f10610990576101008083540402835291602001916109bb565b820191906000526020600020905b81548152906001019060200180831161099e57829003601f168201915b50505050508152602001600282018054600181600116156101000203166002900480601f016020809104026020016040519081016040528092919081815260200182805460018160011615610100020316600290048015610a5d5780601f10610a3257610100808354040283529160200191610a5d565b820191906000526020600020905b815481529060010190602001808311610a4057829003601f168201915b50505050508152602001600382018054600181600116156101000203166002900480601f016020809104026020016040519081016040528092919081815260200182805460018160011615610100020316600290048015610aff5780601f10610ad457610100808354040283529160200191610aff565b820191906000526020600020905b815481529060010190602001808311610ae257829003601f168201915b5050505050815260200160048201548152602001600582015481526020016006820160009054906101000a900473ffffffffffffffffffffffffffffffffffffffff1673ffffffffffffffffffffffffffffffffffffffff1673ffffffffffffffffffffffffffffffffffffffff1681526020016006820160149054906101000a900460ff161515151581525050905060008160c001519050600115158260e00151151514610bf9576040517f08c379a0000000000000000000000000000000000000000000000000000000008152600401808060200182810382526023815260200180611a6f6023913960400191505060405180910390fd5b8073ffffffffffffffffffffffffffffffffffffffff163373ffffffffffffffffffffffffffffffffffffffff161415610c9b576040517f08c379a000000000000000000000000000000000000000000000000000000000815260040180806020018281038252601c8152602001807f596f752063616e742066756e6420796f7572206f776e206d6f7669650000000081525060200191505060405180910390fd5b8160a00151826080015103341115610cfe576040517f08c379a0000000000000000000000000000000000000000000000000000000008152600401808060200182810382526034815260200180611a926034913960400191505060405180910390fd5b60003411610d74576040517f08c379a00000000000000000000000000000000000000000000000000000000081526004018080602001828103825260168152602001807f53656e64206d6f7265207468616e20302065746865720000000000000000000081525060200191505060405180910390fd5b8073ffffffffffffffffffffffffffffffffffffffff166108fc349081150290604051600060405180830381858888f19350505050158015610dba573d6000803e3d6000fd5b50348260a00151018260a001818152505081608001518260a001511415610ded5760008260e00190151590811515815250505b81600080858152602001908152602001600020600082015181600001556020820151816001019080519060200190610e269291906119c9565b506040820151816002019080519060200190610e439291906119c9565b506060820151816003019080519060200190610e609291906119c9565b506080820151816004015560a0820151816005015560c08201518160060160006101000a81548173ffffffffffffffffffffffffffffffffffffffff021916908373ffffffffffffffffffffffffffffffffffffffff16021790555060e08201518160060160146101000a81548160ff0219169083151502179055509050507fd91fed015fce6fc5d56db308001944d007854b4122e6a7be551d1071599bc3bf8383602001518460400151856060015186608001518760a00151878960e00151604051808981526020018060200180602001806020018881526020018781526020018673ffffffffffffffffffffffffffffffffffffffff1673ffffffffffffffffffffffffffffffffffffffff1681526020018515151515815260200184810384528b818151815260200191508051906020019080838360005b83811015610fb6578082015181840152602081019050610f9b565b50505050905090810190601f168015610fe35780820380516001836020036101000a031916815260200191505b5084810383528a818151815260200191508051906020019080838360005b8381101561101c578082015181840152602081019050611001565b50505050905090810190601f1680156110495780820380516001836020036101000a031916815260200191505b50848103825289818151815260200191508051906020019080838360005b83811015611082578082015181840152602081019050611067565b50505050905090810190601f1680156110af5780820380516001836020036101000a031916815260200191505b509b50505050505050505050505060405180910390a1505050565b600460009054906101000a900473ffffffffffffffffffffffffffffffffffffffff1673ffffffffffffffffffffffffffffffffffffffff163373ffffffffffffffffffffffffffffffffffffffff16141561118e576040517f08c379a00000000000000000000000000000000000000000000000000000000081526004018080602001828103825260168152602001807f596f7520617265206e6f7420612070726f64756365720000000000000000000081525060200191505060405180910390fd5b60011515600160003373ffffffffffffffffffffffffffffffffffffffff1673ffffffffffffffffffffffffffffffffffffffff16815260200190815260200160002060000160009054906101000a900460ff16151514611257576040517f08c379a000000000000000000000000000000000000000000000000000000000815260040180806020018281038252601b8152602001807f47657420617070726f76616c2066726f6d207468652061646d696e000000000081525060200191505060405180910390fd5b600084511161126557600080fd5b60008351116112dc576040517f08c379a00000000000000000000000000000000000000000000000000000000081526004018080602001828103825260138152602001807f7469746c652063616e7420626520656d7074790000000000000000000000000081525060200191505060405180910390fd5b6000825111611353576040517f08c379a00000000000000000000000000000000000000000000000000000000081526004018080602001828103825260198152602001807f6465736372697074696f6e2063616e7420626520656d7074790000000000000081525060200191505060405180910390fd5b600073ffffffffffffffffffffffffffffffffffffffff163373ffffffffffffffffffffffffffffffffffffffff1614156113f6576040517f08c379a00000000000000000000000000000000000000000000000000000000081526004018080602001828103825260168152602001807f70726f64756365722063616e7420626520656d7074790000000000000000000081525060200191505060405180910390fd5b6000811161140357600080fd5b6040518061010001604052806002548152602001858152602001848152602001838152602001828152602001600081526020013373ffffffffffffffffffffffffffffffffffffffff1681526020016001151581525060008060025481526020019081526020016000206000820151816000015560208201518160010190805190602001906114939291906119c9565b5060408201518160020190805190602001906114b09291906119c9565b5060608201518160030190805190602001906114cd9291906119c9565b506080820151816004015560a0820151816005015560c08201518160060160006101000a81548173ffffffffffffffffffffffffffffffffffffffff021916908373ffffffffffffffffffffffffffffffffffffffff16021790555060e08201518160060160146101000a81548160ff0219169083151502179055509050507f1b4e695d9ad458bfa704b0125d6cbb5a3fba677bbbaeb1974ac50e5b4bb9607f600254858585856000336001604051808981526020018060200180602001806020018881526020018781526020018673ffffffffffffffffffffffffffffffffffffffff1673ffffffffffffffffffffffffffffffffffffffff1681526020018515151515815260200184810384528b818151815260200191508051906020019080838360005b8381101561160f5780820151818401526020810190506115f4565b50505050905090810190601f16801561163c5780820380516001836020036101000a031916815260200191505b5084810383528a818151815260200191508051906020019080838360005b8381101561167557808201518184015260208101905061165a565b50505050905090810190601f1680156116a25780820380516001836020036101000a031916815260200191505b50848103825289818151815260200191508051906020019080838360005b838110156116db5780820151818401526020810190506116c0565b50505050905090810190601f1680156117085780820380516001836020036101000a031916815260200191505b509b50505050505050505050505060405180910390a160026000815480929190600101919050555050505050565b600460009054906101000a900473ffffffffffffffffffffffffffffffffffffffff1673ffffffffffffffffffffffffffffffffffffffff163373ffffffffffffffffffffffffffffffffffffffff16146117f9576040517f08c379a00000000000000000000000000000000000000000000000000000000081526004018080602001828103825260158152602001807f596f7520617265206e6f74207468652061646d696e000000000000000000000081525060200191505060405180910390fd5b600460009054906101000a900473ffffffffffffffffffffffffffffffffffffffff1673ffffffffffffffffffffffffffffffffffffffff168173ffffffffffffffffffffffffffffffffffffffff1614156118bd576040517f08c379a00000000000000000000000000000000000000000000000000000000081526004018080602001828103825260178152602001807f596f752063616e277420626520612070726f647563657200000000000000000081525060200191505060405180910390fd5b604051806020016040528060011515815250600160008373ffffffffffffffffffffffffffffffffffffffff1673ffffffffffffffffffffffffffffffffffffffff16815260200190815260200160002060008201518160000160006101000a81548160ff02191690831515021790555090505060036000815480929190600101919050555050565b600460009054906101000a900473ffffffffffffffffffffffffffffffffffffffff1681565b604051806101000160405280600081526020016060815260200160608152602001606081526020016000815260200160008152602001600073ffffffffffffffffffffffffffffffffffffffff1681526020016000151581525090565b828054600181600116156101000203166002900490600052602060002090601f016020900481019282601f10611a0a57805160ff1916838001178555611a38565b82800160010185558215611a38579182015b82811115611a37578251825591602001919060010190611a1c565b5b509050611a459190611a49565b5090565b611a6b91905b80821115611a67576000816000905550600101611a4f565b5090565b9056fe546865206d6f766965206973206e6f7420726561647920746f2062652066756e646564506c6561736520656e74657220616e20616d6f756e74206c657373207468616e2074686520726571756972656420616d6f756e74a265627a7a72315820cc1dc00fa03cf380ddee3a39931b39ee1c9a369f85f98ed4b6f3cc63e60afe8564736f6c63430005100032",
  "source": "pragma solidity ^0.5.16;\r\n\r\ncontract MovieFunder{\r\n    \r\n    mapping (uint => Movie) public movies;\r\n    mapping(address => Producer) public producers;\r\n    uint public movieCount=0;\r\n    uint public producerCount=0;\r\n    address public admin;\r\n    \r\n    event movieCreated(\r\n      uint id,\r\n      string movieHash,\r\n      string title,\r\n      string description,\r\n      uint requiredAmount,\r\n      uint availableAmount,\r\n      address payable producer,\r\n      bool active\r\n     );\r\n     \r\n    event movieTipped(\r\n      uint id,\r\n      string movieHash,\r\n      string title,\r\n      string description,\r\n      uint requiredAmount,\r\n      uint availableAmount,\r\n      address payable producer,\r\n      bool active\r\n     );\r\n\r\n    struct Movie{\r\n        uint id;\r\n        string movieHash;\r\n        string title;\r\n        string description;\r\n        uint requiredAmount;\r\n        uint availableAmount;\r\n        address payable producer;\r\n        bool active;\r\n    }\r\n    \r\n    struct Producer{\r\n        bool approved;\r\n    }\r\n\r\n    constructor() public{\r\n        admin = msg.sender;\r\n    }\r\n    \r\n    //Allow a producer to create a movie\r\n    function giveRightToProducer(address _producer) public{\r\n        require(msg.sender==admin,\"You are not the admin\");\r\n        require(_producer!=admin,\"You can't be a producer\");\r\n        producers[_producer]=Producer(true);\r\n        producerCount++;\r\n    }\r\n    \r\n    \r\n    //create a movie\r\n    function createMovie(string memory _movieHash,string memory _title, string memory _description, uint  _requiredAmount) public{\r\n        require(msg.sender!=admin,\"You are not a producer\");\r\n        require(producers[msg.sender].approved==true,\"Get approval from the admin\");\r\n        require(bytes(_movieHash).length > 0);\r\n        require(bytes(_title).length>0,\"title cant be empty\");\r\n        require(bytes(_description).length>0,\"description cant be empty\");\r\n        require(msg.sender!=address(0),\"producer cant be empty\");\r\n        require(_requiredAmount>0);\r\n        movies[movieCount] = Movie(movieCount,_movieHash,_title,_description,_requiredAmount,0,msg.sender,true);\r\n        emit movieCreated(movieCount,_movieHash,_title,_description,_requiredAmount,0,msg.sender,true);\r\n        movieCount++;\r\n    }\r\n    //tip a movie\r\n    function tipMovieOwner(uint _id) public payable{\r\n        require(movies[_id].id==_id,\"Movie doesnt exists\");\r\n        Movie memory _movie = movies[_id];\r\n        address payable _producer = _movie.producer;\r\n        require(_movie.active==true,\"The movie is not ready to be funded\");\r\n        require(msg.sender!=_producer,\"You cant fund your own movie\");\r\n        require(msg.value<=_movie.requiredAmount-_movie.availableAmount,\"Please enter an amount less than the required amount\");\r\n        require(msg.value>0 ether,\"Send more than 0 ether\");\r\n        _producer.transfer(msg.value);\r\n        _movie.availableAmount = _movie.availableAmount+msg.value;\r\n        //if required amount is reached, disable the movie\r\n        if (_movie.availableAmount==_movie.requiredAmount){\r\n        _movie.active=false;}\r\n        movies[_id] = _movie;\r\n        emit movieTipped(_id,_movie.movieHash,_movie.title,_movie.description,_movie.requiredAmount,_movie.availableAmount,_producer,_movie.active);\r\n    }\r\n    \r\n}",
  "sourcePath": "C:/Users/yadev/Desktop/Blockchain/movie_funding/blockchainwood/dmovie/src/contracts/MovieFunder.sol",
  "compiler": {
    "name": "solc",
    "version": "0.5.16+commit.9c3226ce.Emscripten.clang"
  },
  "schemaVersion": "3.2.5",
  "updatedAt": "2020-12-14T18:10:16.297Z",
  "networkType": "ethereum",
  "devdoc": {
    "methods": {}
  },
  "userdoc": {
    "methods": {}
  }
}