{
  "contractName": "MovieFunder",
  "abi": [
    {
      "inputs": [],
      "payable": false,
      "stateMutability": "nonpayable",
      "type": "constructor"
    },
    {
      "anonymous": false,
      "inputs": [
        {
          "indexed": false,
          "internalType": "uint256",
          "name": "id",
          "type": "uint256"
        },
        {
          "indexed": false,
          "internalType": "string",
          "name": "title",
          "type": "string"
        },
        {
          "indexed": false,
          "internalType": "string",
          "name": "description",
          "type": "string"
        },
        {
          "indexed": false,
          "internalType": "uint256",
          "name": "requiredAmount",
          "type": "uint256"
        },
        {
          "indexed": false,
          "internalType": "uint256",
          "name": "availableAmount",
          "type": "uint256"
        },
        {
          "indexed": false,
          "internalType": "address payable",
          "name": "producer",
          "type": "address"
        },
        {
          "indexed": false,
          "internalType": "bool",
          "name": "active",
          "type": "bool"
        }
      ],
      "name": "movieCreated",
      "type": "event"
    },
    {
      "anonymous": false,
      "inputs": [
        {
          "indexed": false,
          "internalType": "uint256",
          "name": "id",
          "type": "uint256"
        },
        {
          "indexed": false,
          "internalType": "string",
          "name": "title",
          "type": "string"
        },
        {
          "indexed": false,
          "internalType": "string",
          "name": "description",
          "type": "string"
        },
        {
          "indexed": false,
          "internalType": "uint256",
          "name": "requiredAmount",
          "type": "uint256"
        },
        {
          "indexed": false,
          "internalType": "uint256",
          "name": "availableAmount",
          "type": "uint256"
        },
        {
          "indexed": false,
          "internalType": "address payable",
          "name": "producer",
          "type": "address"
        },
        {
          "indexed": false,
          "internalType": "bool",
          "name": "active",
          "type": "bool"
        }
      ],
      "name": "movieTipped",
      "type": "event"
    },
    {
      "constant": true,
      "inputs": [],
      "name": "admin",
      "outputs": [
        {
          "internalType": "address",
          "name": "",
          "type": "address"
        }
      ],
      "payable": false,
      "stateMutability": "view",
      "type": "function"
    },
    {
      "constant": true,
      "inputs": [],
      "name": "movieCount",
      "outputs": [
        {
          "internalType": "uint256",
          "name": "",
          "type": "uint256"
        }
      ],
      "payable": false,
      "stateMutability": "view",
      "type": "function"
    },
    {
      "constant": true,
      "inputs": [
        {
          "internalType": "uint256",
          "name": "",
          "type": "uint256"
        }
      ],
      "name": "movies",
      "outputs": [
        {
          "internalType": "uint256",
          "name": "id",
          "type": "uint256"
        },
        {
          "internalType": "string",
          "name": "title",
          "type": "string"
        },
        {
          "internalType": "string",
          "name": "description",
          "type": "string"
        },
        {
          "internalType": "uint256",
          "name": "requiredAmount",
          "type": "uint256"
        },
        {
          "internalType": "uint256",
          "name": "availableAmount",
          "type": "uint256"
        },
        {
          "internalType": "address payable",
          "name": "producer",
          "type": "address"
        },
        {
          "internalType": "bool",
          "name": "active",
          "type": "bool"
        }
      ],
      "payable": false,
      "stateMutability": "view",
      "type": "function"
    },
    {
      "constant": true,
      "inputs": [],
      "name": "producerCount",
      "outputs": [
        {
          "internalType": "uint256",
          "name": "",
          "type": "uint256"
        }
      ],
      "payable": false,
      "stateMutability": "view",
      "type": "function"
    },
    {
      "constant": true,
      "inputs": [
        {
          "internalType": "address",
          "name": "",
          "type": "address"
        }
      ],
      "name": "producers",
      "outputs": [
        {
          "internalType": "bool",
          "name": "approved",
          "type": "bool"
        }
      ],
      "payable": false,
      "stateMutability": "view",
      "type": "function"
    },
    {
      "constant": false,
      "inputs": [
        {
          "internalType": "address",
          "name": "_producer",
          "type": "address"
        }
      ],
      "name": "giveRightToProducer",
      "outputs": [],
      "payable": false,
      "stateMutability": "nonpayable",
      "type": "function"
    },
    {
      "constant": false,
      "inputs": [
        {
          "internalType": "string",
          "name": "_title",
          "type": "string"
        },
        {
          "internalType": "string",
          "name": "_description",
          "type": "string"
        },
        {
          "internalType": "uint256",
          "name": "_requiredAmount",
          "type": "uint256"
        }
      ],
      "name": "createMovie",
      "outputs": [],
      "payable": false,
      "stateMutability": "nonpayable",
      "type": "function"
    },
    {
      "constant": false,
      "inputs": [
        {
          "internalType": "uint256",
          "name": "_id",
          "type": "uint256"
        }
      ],
      "name": "tipMovieOwner",
      "outputs": [],
      "payable": true,
      "stateMutability": "payable",
      "type": "function"
    }
  ],
  "bytecode": "0x60806040526000600255600060035534801561001a57600080fd5b5033600460006101000a81548173ffffffffffffffffffffffffffffffffffffffff021916908373ffffffffffffffffffffffffffffffffffffffff1602179055506117808061006b6000396000f3fe60806040526004361061007b5760003560e01c8063d708fe5b1161004e578063d708fe5b146103f0578063dea21ba11461041b578063e69e9c5214610449578063f851a4401461049a5761007b565b806326324eff14610080578063404ebf6c146100e9578063a1daf3261461025c578063c3a123c614610287575b600080fd5b34801561008c57600080fd5b506100cf600480360360208110156100a357600080fd5b81019080803573ffffffffffffffffffffffffffffffffffffffff1690602001909291905050506104f1565b604051808215151515815260200191505060405180910390f35b3480156100f557600080fd5b506101226004803603602081101561010c57600080fd5b810190808035906020019092919050505061051c565b6040518088815260200180602001806020018781526020018681526020018573ffffffffffffffffffffffffffffffffffffffff1673ffffffffffffffffffffffffffffffffffffffff16815260200184151515158152602001838103835289818151815260200191508051906020019080838360005b838110156101b4578082015181840152602081019050610199565b50505050905090810190601f1680156101e15780820380516001836020036101000a031916815260200191505b50838103825288818151815260200191508051906020019080838360005b8381101561021a5780820151818401526020810190506101ff565b50505050905090810190601f1680156102475780820380516001836020036101000a031916815260200191505b50995050505050505050505060405180910390f35b34801561026857600080fd5b506102716106bb565b6040518082815260200191505060405180910390f35b34801561029357600080fd5b506103ee600480360360608110156102aa57600080fd5b81019080803590602001906401000000008111156102c757600080fd5b8201836020820111156102d957600080fd5b803590602001918460018302840111640100000000831117156102fb57600080fd5b91908080601f016020809104026020016040519081016040528093929190818152602001838380828437600081840152601f19601f8201169050808301925050505050505091929192908035906020019064010000000081111561035e57600080fd5b82018360208201111561037057600080fd5b8035906020019184600183028401116401000000008311171561039257600080fd5b91908080601f016020809104026020016040519081016040528093929190818152602001838380828437600081840152601f19601f820116905080830192505050505050509192919290803590602001909291905050506106c1565b005b3480156103fc57600080fd5b50610405610c8d565b6040518082815260200191505060405180910390f35b6104476004803603602081101561043157600080fd5b8101908080359060200190929190505050610c93565b005b34801561045557600080fd5b506104986004803603602081101561046c57600080fd5b81019080803573ffffffffffffffffffffffffffffffffffffffff1690602001909291905050506113c4565b005b3480156104a657600080fd5b506104af6115d4565b604051808273ffffffffffffffffffffffffffffffffffffffff1673ffffffffffffffffffffffffffffffffffffffff16815260200191505060405180910390f35b60016020528060005260406000206000915090508060000160009054906101000a900460ff16905081565b6000602052806000526040600020600091509050806000015490806001018054600181600116156101000203166002900480601f0160208091040260200160405190810160405280929190818152602001828054600181600116156101000203166002900480156105ce5780601f106105a3576101008083540402835291602001916105ce565b820191906000526020600020905b8154815290600101906020018083116105b157829003601f168201915b505050505090806002018054600181600116156101000203166002900480601f01602080910402602001604051908101604052809291908181526020018280546001816001161561010002031660029004801561066c5780601f106106415761010080835404028352916020019161066c565b820191906000526020600020905b81548152906001019060200180831161064f57829003601f168201915b5050505050908060030154908060040154908060050160009054906101000a900473ffffffffffffffffffffffffffffffffffffffff16908060050160149054906101000a900460ff16905087565b60025481565b600460009054906101000a900473ffffffffffffffffffffffffffffffffffffffff1673ffffffffffffffffffffffffffffffffffffffff163373ffffffffffffffffffffffffffffffffffffffff161415610785576040517f08c379a00000000000000000000000000000000000000000000000000000000081526004018080602001828103825260168152602001807f596f7520617265206e6f7420612070726f64756365720000000000000000000081525060200191505060405180910390fd5b60011515600160003373ffffffffffffffffffffffffffffffffffffffff1673ffffffffffffffffffffffffffffffffffffffff16815260200190815260200160002060000160009054906101000a900460ff1615151461084e576040517f08c379a000000000000000000000000000000000000000000000000000000000815260040180806020018281038252601b8152602001807f47657420617070726f76616c2066726f6d207468652061646d696e000000000081525060200191505060405180910390fd5b60008351116108c5576040517f08c379a00000000000000000000000000000000000000000000000000000000081526004018080602001828103825260138152602001807f7469746c652063616e7420626520656d7074790000000000000000000000000081525060200191505060405180910390fd5b600082511161093c576040517f08c379a00000000000000000000000000000000000000000000000000000000081526004018080602001828103825260198152602001807f6465736372697074696f6e2063616e7420626520656d7074790000000000000081525060200191505060405180910390fd5b600073ffffffffffffffffffffffffffffffffffffffff163373ffffffffffffffffffffffffffffffffffffffff1614156109df576040517f08c379a00000000000000000000000000000000000000000000000000000000081526004018080602001828103825260168152602001807f70726f64756365722063616e7420626520656d7074790000000000000000000081525060200191505060405180910390fd5b600081116109ec57600080fd5b6040518060e001604052806002548152602001848152602001838152602001828152602001600081526020013373ffffffffffffffffffffffffffffffffffffffff168152602001600115158152506000806002548152602001908152602001600020600082015181600001556020820151816001019080519060200190610a759291906115fa565b506040820151816002019080519060200190610a929291906115fa565b50606082015181600301556080820151816004015560a08201518160050160006101000a81548173ffffffffffffffffffffffffffffffffffffffff021916908373ffffffffffffffffffffffffffffffffffffffff16021790555060c08201518160050160146101000a81548160ff0219169083151502179055509050507f3d017c754848040e15759d75f8b86f601e7375aa39cc170b581e9ec799a7525860025484848460003360016040518088815260200180602001806020018781526020018681526020018573ffffffffffffffffffffffffffffffffffffffff1673ffffffffffffffffffffffffffffffffffffffff16815260200184151515158152602001838103835289818151815260200191508051906020019080838360005b83811015610bcf578082015181840152602081019050610bb4565b50505050905090810190601f168015610bfc5780820380516001836020036101000a031916815260200191505b50838103825288818151815260200191508051906020019080838360005b83811015610c35578082015181840152602081019050610c1a565b50505050905090810190601f168015610c625780820380516001836020036101000a031916815260200191505b50995050505050505050505060405180910390a1600260008154809291906001019190505550505050565b60035481565b806000808381526020019081526020016000206000015414610d1d576040517f08c379a00000000000000000000000000000000000000000000000000000000081526004018080602001828103825260138152602001807f4d6f76696520646f65736e74206578697374730000000000000000000000000081525060200191505060405180910390fd5b610d2561167a565b6000808381526020019081526020016000206040518060e001604052908160008201548152602001600182018054600181600116156101000203166002900480601f016020809104026020016040519081016040528092919081815260200182805460018160011615610100020316600290048015610de55780601f10610dba57610100808354040283529160200191610de5565b820191906000526020600020905b815481529060010190602001808311610dc857829003601f168201915b50505050508152602001600282018054600181600116156101000203166002900480601f016020809104026020016040519081016040528092919081815260200182805460018160011615610100020316600290048015610e875780601f10610e5c57610100808354040283529160200191610e87565b820191906000526020600020905b815481529060010190602001808311610e6a57829003601f168201915b5050505050815260200160038201548152602001600482015481526020016005820160009054906101000a900473ffffffffffffffffffffffffffffffffffffffff1673ffffffffffffffffffffffffffffffffffffffff1673ffffffffffffffffffffffffffffffffffffffff1681526020016005820160149054906101000a900460ff161515151581525050905060008160a001519050600115158260c00151151514610f81576040517f08c379a00000000000000000000000000000000000000000000000000000000081526004018080602001828103825260238152602001806116f56023913960400191505060405180910390fd5b8073ffffffffffffffffffffffffffffffffffffffff163373ffffffffffffffffffffffffffffffffffffffff161415611023576040517f08c379a000000000000000000000000000000000000000000000000000000000815260040180806020018281038252601c8152602001807f596f752063616e742066756e6420796f7572206f776e206d6f7669650000000081525060200191505060405180910390fd5b8160800151826060015103341115611086576040517f08c379a00000000000000000000000000000000000000000000000000000000081526004018080602001828103825260348152602001806117186034913960400191505060405180910390fd5b600034116110fc576040517f08c379a00000000000000000000000000000000000000000000000000000000081526004018080602001828103825260168152602001807f53656e64206d6f7265207468616e20302065746865720000000000000000000081525060200191505060405180910390fd5b8073ffffffffffffffffffffffffffffffffffffffff166108fc349081150290604051600060405180830381858888f19350505050158015611142573d6000803e3d6000fd5b50348260800151018260800181815250508160600151826080015114156111755760008260c00190151590811515815250505b816000808581526020019081526020016000206000820151816000015560208201518160010190805190602001906111ae9291906115fa565b5060408201518160020190805190602001906111cb9291906115fa565b50606082015181600301556080820151816004015560a08201518160050160006101000a81548173ffffffffffffffffffffffffffffffffffffffff021916908373ffffffffffffffffffffffffffffffffffffffff16021790555060c08201518160050160146101000a81548160ff0219169083151502179055509050507f78458a64d7ad38a2d49d5eb95cd062b92183d1f0770489f7faa4b5cfcf229f7d838360200151846040015185606001518660800151868860c001516040518088815260200180602001806020018781526020018681526020018573ffffffffffffffffffffffffffffffffffffffff1673ffffffffffffffffffffffffffffffffffffffff16815260200184151515158152602001838103835289818151815260200191508051906020019080838360005b838110156113185780820151818401526020810190506112fd565b50505050905090810190601f1680156113455780820380516001836020036101000a031916815260200191505b50838103825288818151815260200191508051906020019080838360005b8381101561137e578082015181840152602081019050611363565b50505050905090810190601f1680156113ab5780820380516001836020036101000a031916815260200191505b50995050505050505050505060405180910390a1505050565b600460009054906101000a900473ffffffffffffffffffffffffffffffffffffffff1673ffffffffffffffffffffffffffffffffffffffff163373ffffffffffffffffffffffffffffffffffffffff1614611487576040517f08c379a00000000000000000000000000000000000000000000000000000000081526004018080602001828103825260158152602001807f596f7520617265206e6f74207468652061646d696e000000000000000000000081525060200191505060405180910390fd5b600460009054906101000a900473ffffffffffffffffffffffffffffffffffffffff1673ffffffffffffffffffffffffffffffffffffffff168173ffffffffffffffffffffffffffffffffffffffff16141561154b576040517f08c379a00000000000000000000000000000000000000000000000000000000081526004018080602001828103825260178152602001807f596f752063616e277420626520612070726f647563657200000000000000000081525060200191505060405180910390fd5b604051806020016040528060011515815250600160008373ffffffffffffffffffffffffffffffffffffffff1673ffffffffffffffffffffffffffffffffffffffff16815260200190815260200160002060008201518160000160006101000a81548160ff02191690831515021790555090505060036000815480929190600101919050555050565b600460009054906101000a900473ffffffffffffffffffffffffffffffffffffffff1681565b828054600181600116156101000203166002900490600052602060002090601f016020900481019282601f1061163b57805160ff1916838001178555611669565b82800160010185558215611669579182015b8281111561166857825182559160200191906001019061164d565b5b50905061167691906116cf565b5090565b6040518060e001604052806000815260200160608152602001606081526020016000815260200160008152602001600073ffffffffffffffffffffffffffffffffffffffff1681526020016000151581525090565b6116f191905b808211156116ed5760008160009055506001016116d5565b5090565b9056fe546865206d6f766965206973206e6f7420726561647920746f2062652066756e646564506c6561736520656e74657220616e20616d6f756e74206c657373207468616e2074686520726571756972656420616d6f756e74a265627a7a7231582035db6b55c1c44cd11a546c52def166927825b83b26ed002254c7c6c60a454dce64736f6c63430005100032",
  "source": "pragma solidity ^0.5.16;\r\n\r\ncontract MovieFunder{\r\n    \r\n    mapping (uint => Movie) public movies;\r\n    mapping(address => Producer) public producers;\r\n    uint public movieCount=0;\r\n    uint public producerCount=0;\r\n    address public admin;\r\n    \r\n    event movieCreated(\r\n      uint id,\r\n      string title,\r\n      string description,\r\n      uint requiredAmount,\r\n      uint availableAmount,\r\n      address payable producer,\r\n      bool active\r\n     );\r\n     \r\n    event movieTipped(\r\n      uint id,\r\n      string title,\r\n      string description,\r\n      uint requiredAmount,\r\n      uint availableAmount,\r\n      address payable producer,\r\n      bool active\r\n     );\r\n\r\n    struct Movie{\r\n        uint id;\r\n        string title;\r\n        string description;\r\n        uint requiredAmount;\r\n        uint availableAmount;\r\n        address payable producer;\r\n        bool active;\r\n    }\r\n    \r\n    struct Producer{\r\n        bool approved;\r\n    }\r\n\r\n    constructor() public{\r\n        admin = msg.sender;\r\n    }\r\n    \r\n    //Allow a producer to create a movie\r\n    function giveRightToProducer(address _producer) public{\r\n        require(msg.sender==admin,\"You are not the admin\");\r\n        require(_producer!=admin,\"You can't be a producer\");\r\n        producers[_producer]=Producer(true);\r\n        producerCount++;\r\n    }\r\n    \r\n    \r\n    //create a movie\r\n    function createMovie(string memory _title, string memory _description, uint  _requiredAmount) public{\r\n        require(msg.sender!=admin,\"You are not a producer\");\r\n        require(producers[msg.sender].approved==true,\"Get approval from the admin\");\r\n        require(bytes(_title).length>0,\"title cant be empty\");\r\n        require(bytes(_description).length>0,\"description cant be empty\");\r\n        require(msg.sender!=address(0),\"producer cant be empty\");\r\n        require(_requiredAmount>0);\r\n        movies[movieCount] = Movie(movieCount,_title,_description,_requiredAmount,0,msg.sender,true);\r\n        emit movieCreated(movieCount,_title,_description,_requiredAmount,0,msg.sender,true);\r\n        movieCount++;\r\n    }\r\n    //tip a movie\r\n    function tipMovieOwner(uint _id) public payable{\r\n        require(movies[_id].id==_id,\"Movie doesnt exists\");\r\n        Movie memory _movie = movies[_id];\r\n        address payable _producer = _movie.producer;\r\n        require(_movie.active==true,\"The movie is not ready to be funded\");\r\n        require(msg.sender!=_producer,\"You cant fund your own movie\");\r\n        require(msg.value<=_movie.requiredAmount-_movie.availableAmount,\"Please enter an amount less than the required amount\");\r\n        require(msg.value>0 ether,\"Send more than 0 ether\");\r\n        _producer.transfer(msg.value);\r\n        _movie.availableAmount = _movie.availableAmount+msg.value;\r\n        //if required amount is reached, disable the movie\r\n        if (_movie.availableAmount==_movie.requiredAmount){\r\n        _movie.active=false;}\r\n        movies[_id] = _movie;\r\n        emit movieTipped(_id,_movie.title,_movie.description,_movie.requiredAmount,_movie.availableAmount,_producer,_movie.active);\r\n    }\r\n    \r\n}",
  "sourcePath": "C:/Users/yadev/Desktop/Blockchain/movie_funding/blockchainwood/dmovie/src/contracts/MovieFunder.sol",
  "compiler": {
    "name": "solc",
    "version": "0.5.16+commit.9c3226ce.Emscripten.clang"
  },
  "schemaVersion": "3.2.5",
  "updatedAt": "2020-12-14T08:19:45.417Z",
  "networkType": "ethereum",
  "devdoc": {
    "methods": {}
  },
  "userdoc": {
    "methods": {}
  }
}